{
  "_format": "hh-sol-artifact-1",
  "contractName": "TestNFT",
  "sourceName": "contracts/TestNFT.sol",
  "abi": [
    {
      "inputs": [
        {
          "internalType": "string",
          "name": "_uri",
          "type": "string"
        },
        {
          "internalType": "uint256[]",
          "name": "_ids",
          "type": "uint256[]"
        },
        {
          "internalType": "string[]",
          "name": "_names",
          "type": "string[]"
        },
        {
          "internalType": "string[]",
          "name": "_metas",
          "type": "string[]"
        }
      ],
      "stateMutability": "nonpayable",
      "type": "constructor"
    },
    {
      "anonymous": false,
      "inputs": [
        {
          "indexed": true,
          "internalType": "address",
          "name": "account",
          "type": "address"
        },
        {
          "indexed": true,
          "internalType": "address",
          "name": "operator",
          "type": "address"
        },
        {
          "indexed": false,
          "internalType": "bool",
          "name": "approved",
          "type": "bool"
        }
      ],
      "name": "ApprovalForAll",
      "type": "event"
    },
    {
      "anonymous": false,
      "inputs": [
        {
          "indexed": true,
          "internalType": "address",
          "name": "previousOwner",
          "type": "address"
        },
        {
          "indexed": true,
          "internalType": "address",
          "name": "newOwner",
          "type": "address"
        }
      ],
      "name": "OwnershipTransferred",
      "type": "event"
    },
    {
      "anonymous": false,
      "inputs": [
        {
          "indexed": true,
          "internalType": "address",
          "name": "operator",
          "type": "address"
        },
        {
          "indexed": true,
          "internalType": "address",
          "name": "from",
          "type": "address"
        },
        {
          "indexed": true,
          "internalType": "address",
          "name": "to",
          "type": "address"
        },
        {
          "indexed": false,
          "internalType": "uint256[]",
          "name": "ids",
          "type": "uint256[]"
        },
        {
          "indexed": false,
          "internalType": "uint256[]",
          "name": "values",
          "type": "uint256[]"
        }
      ],
      "name": "TransferBatch",
      "type": "event"
    },
    {
      "anonymous": false,
      "inputs": [
        {
          "indexed": true,
          "internalType": "address",
          "name": "operator",
          "type": "address"
        },
        {
          "indexed": true,
          "internalType": "address",
          "name": "from",
          "type": "address"
        },
        {
          "indexed": true,
          "internalType": "address",
          "name": "to",
          "type": "address"
        },
        {
          "indexed": false,
          "internalType": "uint256",
          "name": "id",
          "type": "uint256"
        },
        {
          "indexed": false,
          "internalType": "uint256",
          "name": "value",
          "type": "uint256"
        }
      ],
      "name": "TransferSingle",
      "type": "event"
    },
    {
      "anonymous": false,
      "inputs": [
        {
          "indexed": false,
          "internalType": "string",
          "name": "value",
          "type": "string"
        },
        {
          "indexed": true,
          "internalType": "uint256",
          "name": "id",
          "type": "uint256"
        }
      ],
      "name": "URI",
      "type": "event"
    },
    {
      "inputs": [
        {
          "internalType": "address",
          "name": "account",
          "type": "address"
        },
        {
          "internalType": "uint256",
          "name": "id",
          "type": "uint256"
        }
      ],
      "name": "balanceOf",
      "outputs": [
        {
          "internalType": "uint256",
          "name": "",
          "type": "uint256"
        }
      ],
      "stateMutability": "view",
      "type": "function"
    },
    {
      "inputs": [
        {
          "internalType": "address[]",
          "name": "accounts",
          "type": "address[]"
        },
        {
          "internalType": "uint256[]",
          "name": "ids",
          "type": "uint256[]"
        }
      ],
      "name": "balanceOfBatch",
      "outputs": [
        {
          "internalType": "uint256[]",
          "name": "",
          "type": "uint256[]"
        }
      ],
      "stateMutability": "view",
      "type": "function"
    },
    {
      "inputs": [],
      "name": "baseMetadataURI",
      "outputs": [
        {
          "internalType": "string",
          "name": "",
          "type": "string"
        }
      ],
      "stateMutability": "view",
      "type": "function"
    },
    {
      "inputs": [],
      "name": "getNames",
      "outputs": [
        {
          "internalType": "string[]",
          "name": "",
          "type": "string[]"
        }
      ],
      "stateMutability": "view",
      "type": "function"
    },
    {
      "inputs": [
        {
          "internalType": "uint256",
          "name": "",
          "type": "uint256"
        }
      ],
      "name": "idToMeta",
      "outputs": [
        {
          "internalType": "string",
          "name": "",
          "type": "string"
        }
      ],
      "stateMutability": "view",
      "type": "function"
    },
    {
      "inputs": [
        {
          "internalType": "uint256",
          "name": "",
          "type": "uint256"
        }
      ],
      "name": "idToName",
      "outputs": [
        {
          "internalType": "string",
          "name": "",
          "type": "string"
        }
      ],
      "stateMutability": "view",
      "type": "function"
    },
    {
      "inputs": [
        {
          "internalType": "uint256",
          "name": "",
          "type": "uint256"
        }
      ],
      "name": "ids",
      "outputs": [
        {
          "internalType": "uint256",
          "name": "",
          "type": "uint256"
        }
      ],
      "stateMutability": "view",
      "type": "function"
    },
    {
      "inputs": [
        {
          "internalType": "address",
          "name": "account",
          "type": "address"
        },
        {
          "internalType": "address",
          "name": "operator",
          "type": "address"
        }
      ],
      "name": "isApprovedForAll",
      "outputs": [
        {
          "internalType": "bool",
          "name": "",
          "type": "bool"
        }
      ],
      "stateMutability": "view",
      "type": "function"
    },
    {
      "inputs": [
        {
          "internalType": "uint256",
          "name": "_id",
          "type": "uint256"
        },
        {
          "internalType": "uint256",
          "name": "_amount",
          "type": "uint256"
        }
      ],
      "name": "mint",
      "outputs": [],
      "stateMutability": "nonpayable",
      "type": "function"
    },
    {
      "inputs": [
        {
          "internalType": "uint256[]",
          "name": "_ids",
          "type": "uint256[]"
        },
        {
          "internalType": "uint256[]",
          "name": "amounts",
          "type": "uint256[]"
        },
        {
          "internalType": "bytes",
          "name": "data",
          "type": "bytes"
        }
      ],
      "name": "mintBatch",
      "outputs": [],
      "stateMutability": "nonpayable",
      "type": "function"
    },
    {
      "inputs": [
        {
          "internalType": "uint256",
          "name": "_id",
          "type": "uint256"
        },
        {
          "internalType": "uint256",
          "name": "_amount",
          "type": "uint256"
        }
      ],
      "name": "mintError",
      "outputs": [],
      "stateMutability": "nonpayable",
      "type": "function"
    },
    {
      "inputs": [
        {
          "internalType": "string",
          "name": "",
          "type": "string"
        }
      ],
      "name": "nameToId",
      "outputs": [
        {
          "internalType": "uint256",
          "name": "",
          "type": "uint256"
        }
      ],
      "stateMutability": "view",
      "type": "function"
    },
    {
      "inputs": [
        {
          "internalType": "uint256",
          "name": "",
          "type": "uint256"
        }
      ],
      "name": "names",
      "outputs": [
        {
          "internalType": "string",
          "name": "",
          "type": "string"
        }
      ],
      "stateMutability": "view",
      "type": "function"
    },
    {
      "inputs": [],
      "name": "owner",
      "outputs": [
        {
          "internalType": "address",
          "name": "",
          "type": "address"
        }
      ],
      "stateMutability": "view",
      "type": "function"
    },
    {
      "inputs": [],
      "name": "renounceOwnership",
      "outputs": [],
      "stateMutability": "nonpayable",
      "type": "function"
    },
    {
      "inputs": [
        {
          "internalType": "address",
          "name": "from",
          "type": "address"
        },
        {
          "internalType": "address",
          "name": "to",
          "type": "address"
        },
        {
          "internalType": "uint256[]",
          "name": "ids",
          "type": "uint256[]"
        },
        {
          "internalType": "uint256[]",
          "name": "amounts",
          "type": "uint256[]"
        },
        {
          "internalType": "bytes",
          "name": "data",
          "type": "bytes"
        }
      ],
      "name": "safeBatchTransferFrom",
      "outputs": [],
      "stateMutability": "nonpayable",
      "type": "function"
    },
    {
      "inputs": [
        {
          "internalType": "address",
          "name": "from",
          "type": "address"
        },
        {
          "internalType": "address",
          "name": "to",
          "type": "address"
        },
        {
          "internalType": "uint256",
          "name": "id",
          "type": "uint256"
        },
        {
          "internalType": "uint256",
          "name": "amount",
          "type": "uint256"
        },
        {
          "internalType": "bytes",
          "name": "data",
          "type": "bytes"
        }
      ],
      "name": "safeTransferFrom",
      "outputs": [],
      "stateMutability": "nonpayable",
      "type": "function"
    },
    {
      "inputs": [
        {
          "internalType": "address",
          "name": "operator",
          "type": "address"
        },
        {
          "internalType": "bool",
          "name": "approved",
          "type": "bool"
        }
      ],
      "name": "setApprovalForAll",
      "outputs": [],
      "stateMutability": "nonpayable",
      "type": "function"
    },
    {
      "inputs": [
        {
          "internalType": "string",
          "name": "newuri",
          "type": "string"
        }
      ],
      "name": "setURI",
      "outputs": [],
      "stateMutability": "nonpayable",
      "type": "function"
    },
    {
      "inputs": [
        {
          "internalType": "bytes4",
          "name": "interfaceId",
          "type": "bytes4"
        }
      ],
      "name": "supportsInterface",
      "outputs": [
        {
          "internalType": "bool",
          "name": "",
          "type": "bool"
        }
      ],
      "stateMutability": "view",
      "type": "function"
    },
    {
      "inputs": [
        {
          "internalType": "address",
          "name": "newOwner",
          "type": "address"
        }
      ],
      "name": "transferOwnership",
      "outputs": [],
      "stateMutability": "nonpayable",
      "type": "function"
    },
    {
      "inputs": [
        {
          "internalType": "uint256",
          "name": "_tokenid",
          "type": "uint256"
        }
      ],
      "name": "uri",
      "outputs": [
        {
          "internalType": "string",
          "name": "",
          "type": "string"
        }
      ],
      "stateMutability": "view",
      "type": "function"
    }
  ],
  "bytecode": "0x60806040523480156200001157600080fd5b5060405162004bf838038062004bf8833981810160405281019062000037919062000943565b836200004981620000e160201b60201c565b506200006a6200005e620000fd60201b60201c565b6200010560201b60201c565b816005908051906020019062000082929190620004ec565b5082600490805190602001906200009b92919062000553565b508360069080519060200190620000b4929190620005a5565b50620000c681620001cb60201b60201c565b620000d7846200040d60201b60201c565b5050505062000dc9565b8060029080519060200190620000f9929190620005a5565b5050565b600033905090565b6000600360009054906101000a900473ffffffffffffffffffffffffffffffffffffffff16905081600360006101000a81548173ffffffffffffffffffffffffffffffffffffffff021916908373ffffffffffffffffffffffffffffffffffffffff1602179055508173ffffffffffffffffffffffffffffffffffffffff168173ffffffffffffffffffffffffffffffffffffffff167f8be0079c531659141344cd1fd0a4f28419497f9722a3daafe3b4186f6b6457e060405160405180910390a35050565b60005b60048054905081101562000409576004818154811062000217577f4e487b7100000000000000000000000000000000000000000000000000000000600052603260045260246000fd5b90600052602060002001546007600583815481106200025f577f4e487b7100000000000000000000000000000000000000000000000000000000600052603260045260246000fd5b9060005260206000200160405162000278919062000ac5565b90815260200160405180910390208190555060058181548110620002c5577f4e487b7100000000000000000000000000000000000000000000000000000000600052603260045260246000fd5b9060005260206000200160086000600484815481106200030e577f4e487b7100000000000000000000000000000000000000000000000000000000600052603260045260246000fd5b90600052602060002001548152602001908152602001600020908054620003359062000c2e565b6200034292919062000636565b508181815181106200037d577f4e487b7100000000000000000000000000000000000000000000000000000000600052603260045260246000fd5b60200260200101516009600060048481548110620003c4577f4e487b7100000000000000000000000000000000000000000000000000000000600052603260045260246000fd5b906000526020600020015481526020019081526020016000209080519060200190620003f2929190620005a5565b508080620004009062000c9a565b915050620001ce565b5050565b6200041d6200043160201b60201c565b6200042e81620000e160201b60201c565b50565b62000441620000fd60201b60201c565b73ffffffffffffffffffffffffffffffffffffffff1662000467620004c260201b60201c565b73ffffffffffffffffffffffffffffffffffffffff1614620004c0576040517f08c379a0000000000000000000000000000000000000000000000000000000008152600401620004b79062000ade565b60405180910390fd5b565b6000600360009054906101000a900473ffffffffffffffffffffffffffffffffffffffff16905090565b82805482825590600052602060002090810192821562000540579160200282015b828111156200053f5782518290805190602001906200052e929190620005a5565b50916020019190600101906200050d565b5b5090506200054f9190620006ce565b5090565b82805482825590600052602060002090810192821562000592579160200282015b828111156200059157825182559160200191906001019062000574565b5b509050620005a19190620006f6565b5090565b828054620005b39062000c2e565b90600052602060002090601f016020900481019282620005d7576000855562000623565b82601f10620005f257805160ff191683800117855562000623565b8280016001018555821562000623579182015b828111156200062257825182559160200191906001019062000605565b5b509050620006329190620006f6565b5090565b828054620006449062000c2e565b90600052602060002090601f016020900481019282620006685760008555620006bb565b82601f106200067b5780548555620006bb565b82800160010185558215620006bb57600052602060002091601f016020900482015b82811115620006ba5782548255916001019190600101906200069d565b5b509050620006ca9190620006f6565b5090565b5b80821115620006f25760008181620006e8919062000715565b50600101620006cf565b5090565b5b8082111562000711576000816000905550600101620006f7565b5090565b508054620007239062000c2e565b6000825580601f1062000737575062000758565b601f016020900490600052602060002090810190620007579190620006f6565b5b50565b6000620007726200076c8462000b29565b62000b00565b905080838252602082019050828560208602820111156200079257600080fd5b60005b85811015620007e157815167ffffffffffffffff811115620007b657600080fd5b808601620007c58982620008ff565b8552602085019450602084019350505060018101905062000795565b5050509392505050565b600062000802620007fc8462000b58565b62000b00565b905080838252602082019050828560208602820111156200082257600080fd5b60005b858110156200085657816200083b88826200092c565b84526020840193506020830192505060018101905062000825565b5050509392505050565b600062000877620008718462000b87565b62000b00565b9050828152602081018484840111156200089057600080fd5b6200089d84828562000bf8565b509392505050565b600082601f830112620008b757600080fd5b8151620008c98482602086016200075b565b91505092915050565b600082601f830112620008e457600080fd5b8151620008f6848260208601620007eb565b91505092915050565b600082601f8301126200091157600080fd5b81516200092384826020860162000860565b91505092915050565b6000815190506200093d8162000daf565b92915050565b600080600080608085870312156200095a57600080fd5b600085015167ffffffffffffffff8111156200097557600080fd5b6200098387828801620008ff565b945050602085015167ffffffffffffffff811115620009a157600080fd5b620009af87828801620008d2565b935050604085015167ffffffffffffffff811115620009cd57600080fd5b620009db87828801620008a5565b925050606085015167ffffffffffffffff811115620009f957600080fd5b62000a0787828801620008a5565b91505092959194509250565b6000815462000a228162000c2e565b62000a2e818662000be3565b9450600182166000811462000a4c576001811462000a5e5762000a95565b60ff1983168652818601935062000a95565b62000a698562000bbd565b60005b8381101562000a8d5781548189015260018201915060208101905062000a6c565b838801955050505b50505092915050565b600062000aad60208362000bd2565b915062000aba8262000d86565b602082019050919050565b600062000ad3828462000a13565b915081905092915050565b6000602082019050818103600083015262000af98162000a9e565b9050919050565b600062000b0c62000b1f565b905062000b1a828262000c64565b919050565b6000604051905090565b600067ffffffffffffffff82111562000b475762000b4662000d46565b5b602082029050602081019050919050565b600067ffffffffffffffff82111562000b765762000b7562000d46565b5b602082029050602081019050919050565b600067ffffffffffffffff82111562000ba55762000ba462000d46565b5b62000bb08262000d75565b9050602081019050919050565b60008190508160005260206000209050919050565b600082825260208201905092915050565b600081905092915050565b6000819050919050565b60005b8381101562000c1857808201518184015260208101905062000bfb565b8381111562000c28576000848401525b50505050565b6000600282049050600182168062000c4757607f821691505b6020821081141562000c5e5762000c5d62000d17565b5b50919050565b62000c6f8262000d75565b810181811067ffffffffffffffff8211171562000c915762000c9062000d46565b5b80604052505050565b600062000ca78262000bee565b91507fffffffffffffffffffffffffffffffffffffffffffffffffffffffffffffffff82141562000cdd5762000cdc62000ce8565b5b600182019050919050565b7f4e487b7100000000000000000000000000000000000000000000000000000000600052601160045260246000fd5b7f4e487b7100000000000000000000000000000000000000000000000000000000600052602260045260246000fd5b7f4e487b7100000000000000000000000000000000000000000000000000000000600052604160045260246000fd5b6000601f19601f8301169050919050565b7f4f776e61626c653a2063616c6c6572206973206e6f7420746865206f776e6572600082015250565b62000dba8162000bee565b811462000dc657600080fd5b50565b613e1f8062000dd96000396000f3fe608060405234801561001057600080fd5b50600436106101415760003560e01c8063715018a6116100b8578063cd838f0f1161007c578063cd838f0f14610384578063e985e9c5146103a2578063f242432a146103d2578063f2fde38b146103ee578063f6d8f2cb1461040a578063fac333ac1461043a57610141565b8063715018a6146103085780637a107656146103125780638da5cb5b1461032e578063a22cb4651461034c578063bb4351e81461036857610141565b80631b2ef1ca1161010a5780631b2ef1ca146102225780632eb2c2d61461023e578063364410b31461025a5780634622ab031461028a5780634e1273f4146102ba5780635b2bd79e146102ea57610141565b8062fdd58e1461014657806301ffc9a71461017657806302fe5305146101a65780630e89341c146101c2578063119cb81b146101f2575b600080fd5b610160600480360381019061015b919061292a565b61046a565b60405161016d9190613414565b60405180910390f35b610190600480360381019061018b9190612a92565b610533565b60405161019d91906131f7565b60405180910390f35b6101c060048036038101906101bb9190612ae4565b610615565b005b6101dc60048036038101906101d79190612b25565b610629565b6040516101e99190613212565b60405180910390f35b61020c60048036038101906102079190612b25565b610667565b6040516102199190613212565b60405180910390f35b61023c60048036038101906102379190612b4e565b610707565b005b610258600480360381019061025391906127a0565b610726565b005b610274600480360381019061026f9190612b25565b6107c7565b6040516102819190613212565b60405180910390f35b6102a4600480360381019061029f9190612b25565b610867565b6040516102b19190613212565b60405180910390f35b6102d460048036038101906102cf9190612966565b610913565b6040516102e1919061319e565b60405180910390f35b6102f2610ac4565b6040516102ff9190613212565b60405180910390f35b610310610b52565b005b61032c60048036038101906103279190612b4e565b610b66565b005b610336610bce565b6040516103439190613068565b60405180910390f35b610366600480360381019061036191906128ee565b610bf8565b005b610382600480360381019061037d91906129d2565b610c0e565b005b61038c610c1f565b604051610399919061317c565b60405180910390f35b6103bc60048036038101906103b79190612764565b610cf8565b6040516103c991906131f7565b60405180910390f35b6103ec60048036038101906103e7919061285f565b610d8c565b005b6104086004803603810190610403919061273b565b610e2d565b005b610424600480360381019061041f9190612ae4565b610eb1565b6040516104319190613414565b60405180910390f35b610454600480360381019061044f9190612b25565b610edf565b6040516104619190613414565b60405180910390f35b60008073ffffffffffffffffffffffffffffffffffffffff168373ffffffffffffffffffffffffffffffffffffffff1614156104db576040517f08c379a00000000000000000000000000000000000000000000000000000000081526004016104d2906132b4565b60405180910390fd5b60008083815260200190815260200160002060008473ffffffffffffffffffffffffffffffffffffffff1673ffffffffffffffffffffffffffffffffffffffff16815260200190815260200160002054905092915050565b60007fd9b67a26000000000000000000000000000000000000000000000000000000007bffffffffffffffffffffffffffffffffffffffffffffffffffffffff1916827bffffffffffffffffffffffffffffffffffffffffffffffffffffffff191614806105fe57507f0e89341c000000000000000000000000000000000000000000000000000000007bffffffffffffffffffffffffffffffffffffffffffffffffffffffff1916827bffffffffffffffffffffffffffffffffffffffffffffffffffffffff1916145b8061060e575061060d82610f03565b5b9050919050565b61061d610f6d565b61062681610feb565b50565b6060600660096000848152602001908152602001600020604051602001610651929190613044565b6040516020818303038152906040529050919050565b6009602052806000526040600020600091509050805461068690613729565b80601f01602080910402602001604051908101604052809291908181526020018280546106b290613729565b80156106ff5780601f106106d4576101008083540402835291602001916106ff565b820191906000526020600020905b8154815290600101906020018083116106e257829003601f168201915b505050505081565b61072233838360405180602001604052806000815250611005565b5050565b61072e6111b6565b73ffffffffffffffffffffffffffffffffffffffff168573ffffffffffffffffffffffffffffffffffffffff16148061077457506107738561076e6111b6565b610cf8565b5b6107b3576040517f08c379a00000000000000000000000000000000000000000000000000000000081526004016107aa90613254565b60405180910390fd5b6107c085858585856111be565b5050505050565b600860205280600052604060002060009150905080546107e690613729565b80601f016020809104026020016040519081016040528092919081815260200182805461081290613729565b801561085f5780601f106108345761010080835404028352916020019161085f565b820191906000526020600020905b81548152906001019060200180831161084257829003601f168201915b505050505081565b6005818154811061087757600080fd5b90600052602060002001600091509050805461089290613729565b80601f01602080910402602001604051908101604052809291908181526020018280546108be90613729565b801561090b5780601f106108e05761010080835404028352916020019161090b565b820191906000526020600020905b8154815290600101906020018083116108ee57829003601f168201915b505050505081565b60608151835114610959576040517f08c379a0000000000000000000000000000000000000000000000000000000008152600401610950906133b4565b60405180910390fd5b6000835167ffffffffffffffff81111561099c577f4e487b7100000000000000000000000000000000000000000000000000000000600052604160045260246000fd5b6040519080825280602002602001820160405280156109ca5781602001602082028036833780820191505090505b50905060005b8451811015610ab957610a63858281518110610a15577f4e487b7100000000000000000000000000000000000000000000000000000000600052603260045260246000fd5b6020026020010151858381518110610a56577f4e487b7100000000000000000000000000000000000000000000000000000000600052603260045260246000fd5b602002602001015161046a565b828281518110610a9c577f4e487b7100000000000000000000000000000000000000000000000000000000600052603260045260246000fd5b60200260200101818152505080610ab29061378c565b90506109d0565b508091505092915050565b60068054610ad190613729565b80601f0160208091040260200160405190810160405280929190818152602001828054610afd90613729565b8015610b4a5780601f10610b1f57610100808354040283529160200191610b4a565b820191906000526020600020905b815481529060010190602001808311610b2d57829003601f168201915b505050505081565b610b5a610f6d565b610b64600061152c565b565b610baf3330670de0b6b3a764000073623aab88820d89d86b67a64c7d935471b9ad76a673ffffffffffffffffffffffffffffffffffffffff166115f2909392919063ffffffff16565b610bca33838360405180602001604052806000815250611005565b5050565b6000600360009054906101000a900473ffffffffffffffffffffffffffffffffffffffff16905090565b610c0a610c036111b6565b838361167b565b5050565b610c1a338484846117e8565b505050565b60606005805480602002602001604051908101604052809291908181526020016000905b82821015610cef578382906000526020600020018054610c6290613729565b80601f0160208091040260200160405190810160405280929190818152602001828054610c8e90613729565b8015610cdb5780601f10610cb057610100808354040283529160200191610cdb565b820191906000526020600020905b815481529060010190602001808311610cbe57829003601f168201915b505050505081526020019060010190610c43565b50505050905090565b6000600160008473ffffffffffffffffffffffffffffffffffffffff1673ffffffffffffffffffffffffffffffffffffffff16815260200190815260200160002060008373ffffffffffffffffffffffffffffffffffffffff1673ffffffffffffffffffffffffffffffffffffffff16815260200190815260200160002060009054906101000a900460ff16905092915050565b610d946111b6565b73ffffffffffffffffffffffffffffffffffffffff168573ffffffffffffffffffffffffffffffffffffffff161480610dda5750610dd985610dd46111b6565b610cf8565b5b610e19576040517f08c379a0000000000000000000000000000000000000000000000000000000008152600401610e1090613254565b60405180910390fd5b610e268585858585611a61565b5050505050565b610e35610f6d565b600073ffffffffffffffffffffffffffffffffffffffff168173ffffffffffffffffffffffffffffffffffffffff161415610ea5576040517f08c379a0000000000000000000000000000000000000000000000000000000008152600401610e9c90613294565b60405180910390fd5b610eae8161152c565b50565b6007818051602081018201805184825260208301602085012081835280955050505050506000915090505481565b60048181548110610eef57600080fd5b906000526020600020016000915090505481565b60007f01ffc9a7000000000000000000000000000000000000000000000000000000007bffffffffffffffffffffffffffffffffffffffffffffffffffffffff1916827bffffffffffffffffffffffffffffffffffffffffffffffffffffffff1916149050919050565b610f756111b6565b73ffffffffffffffffffffffffffffffffffffffff16610f93610bce565b73ffffffffffffffffffffffffffffffffffffffff1614610fe9576040517f08c379a0000000000000000000000000000000000000000000000000000000008152600401610fe090613334565b60405180910390fd5b565b806002908051906020019061100192919061241e565b5050565b600073ffffffffffffffffffffffffffffffffffffffff168473ffffffffffffffffffffffffffffffffffffffff161415611075576040517f08c379a000000000000000000000000000000000000000000000000000000000815260040161106c906133f4565b60405180910390fd5b600061107f6111b6565b9050600061108c85611cfd565b9050600061109985611cfd565b90506110aa83600089858589611dc3565b8460008088815260200190815260200160002060008973ffffffffffffffffffffffffffffffffffffffff1673ffffffffffffffffffffffffffffffffffffffff1681526020019081526020016000206000828254611109919061361d565b925050819055508673ffffffffffffffffffffffffffffffffffffffff16600073ffffffffffffffffffffffffffffffffffffffff168473ffffffffffffffffffffffffffffffffffffffff167fc3d58168c5ae7397731d063d5bbf3d657854427343f4c083240f7aacaa2d0f62898960405161118792919061342f565b60405180910390a461119e83600089858589611dcb565b6111ad83600089898989611dd3565b50505050505050565b600033905090565b8151835114611202576040517f08c379a00000000000000000000000000000000000000000000000000000000081526004016111f9906133d4565b60405180910390fd5b600073ffffffffffffffffffffffffffffffffffffffff168473ffffffffffffffffffffffffffffffffffffffff161415611272576040517f08c379a0000000000000000000000000000000000000000000000000000000008152600401611269906132f4565b60405180910390fd5b600061127c6111b6565b905061128c818787878787611dc3565b60005b84518110156114895760008582815181106112d3577f4e487b7100000000000000000000000000000000000000000000000000000000600052603260045260246000fd5b602002602001015190506000858381518110611318577f4e487b7100000000000000000000000000000000000000000000000000000000600052603260045260246000fd5b60200260200101519050600080600084815260200190815260200160002060008b73ffffffffffffffffffffffffffffffffffffffff1673ffffffffffffffffffffffffffffffffffffffff168152602001908152602001600020549050818110156113b9576040517f08c379a00000000000000000000000000000000000000000000000000000000081526004016113b090613314565b60405180910390fd5b81810360008085815260200190815260200160002060008c73ffffffffffffffffffffffffffffffffffffffff1673ffffffffffffffffffffffffffffffffffffffff168152602001908152602001600020819055508160008085815260200190815260200160002060008b73ffffffffffffffffffffffffffffffffffffffff1673ffffffffffffffffffffffffffffffffffffffff168152602001908152602001600020600082825461146e919061361d565b92505081905550505050806114829061378c565b905061128f565b508473ffffffffffffffffffffffffffffffffffffffff168673ffffffffffffffffffffffffffffffffffffffff168273ffffffffffffffffffffffffffffffffffffffff167f4a39dc06d4c0dbc64b70af90fd698a233a518aa5d07e595d983b8c0526c8f7fb87876040516115009291906131c0565b60405180910390a4611516818787878787611dcb565b611524818787878787611fba565b505050505050565b6000600360009054906101000a900473ffffffffffffffffffffffffffffffffffffffff16905081600360006101000a81548173ffffffffffffffffffffffffffffffffffffffff021916908373ffffffffffffffffffffffffffffffffffffffff1602179055508173ffffffffffffffffffffffffffffffffffffffff168173ffffffffffffffffffffffffffffffffffffffff167f8be0079c531659141344cd1fd0a4f28419497f9722a3daafe3b4186f6b6457e060405160405180910390a35050565b611675846323b872dd60e01b858585604051602401611613939291906130eb565b604051602081830303815290604052907bffffffffffffffffffffffffffffffffffffffffffffffffffffffff19166020820180517bffffffffffffffffffffffffffffffffffffffffffffffffffffffff83818316178352505050506121a1565b50505050565b8173ffffffffffffffffffffffffffffffffffffffff168373ffffffffffffffffffffffffffffffffffffffff1614156116ea576040517f08c379a00000000000000000000000000000000000000000000000000000000081526004016116e190613374565b60405180910390fd5b80600160008573ffffffffffffffffffffffffffffffffffffffff1673ffffffffffffffffffffffffffffffffffffffff16815260200190815260200160002060008473ffffffffffffffffffffffffffffffffffffffff1673ffffffffffffffffffffffffffffffffffffffff16815260200190815260200160002060006101000a81548160ff0219169083151502179055508173ffffffffffffffffffffffffffffffffffffffff168373ffffffffffffffffffffffffffffffffffffffff167f17307eab39ab6107e8899845ad3d59bd9653f200f220920489ca2b5937696c31836040516117db91906131f7565b60405180910390a3505050565b600073ffffffffffffffffffffffffffffffffffffffff168473ffffffffffffffffffffffffffffffffffffffff161415611858576040517f08c379a000000000000000000000000000000000000000000000000000000000815260040161184f906133f4565b60405180910390fd5b815183511461189c576040517f08c379a0000000000000000000000000000000000000000000000000000000008152600401611893906133d4565b60405180910390fd5b60006118a66111b6565b90506118b781600087878787611dc3565b60005b84518110156119bc578381815181106118fc577f4e487b7100000000000000000000000000000000000000000000000000000000600052603260045260246000fd5b6020026020010151600080878481518110611940577f4e487b7100000000000000000000000000000000000000000000000000000000600052603260045260246000fd5b6020026020010151815260200190815260200160002060008873ffffffffffffffffffffffffffffffffffffffff1673ffffffffffffffffffffffffffffffffffffffff16815260200190815260200160002060008282546119a2919061361d565b9250508190555080806119b49061378c565b9150506118ba565b508473ffffffffffffffffffffffffffffffffffffffff16600073ffffffffffffffffffffffffffffffffffffffff168273ffffffffffffffffffffffffffffffffffffffff167f4a39dc06d4c0dbc64b70af90fd698a233a518aa5d07e595d983b8c0526c8f7fb8787604051611a349291906131c0565b60405180910390a4611a4b81600087878787611dcb565b611a5a81600087878787611fba565b5050505050565b600073ffffffffffffffffffffffffffffffffffffffff168473ffffffffffffffffffffffffffffffffffffffff161415611ad1576040517f08c379a0000000000000000000000000000000000000000000000000000000008152600401611ac8906132f4565b60405180910390fd5b6000611adb6111b6565b90506000611ae885611cfd565b90506000611af585611cfd565b9050611b05838989858589611dc3565b600080600088815260200190815260200160002060008a73ffffffffffffffffffffffffffffffffffffffff1673ffffffffffffffffffffffffffffffffffffffff16815260200190815260200160002054905085811015611b9c576040517f08c379a0000000000000000000000000000000000000000000000000000000008152600401611b9390613314565b60405180910390fd5b85810360008089815260200190815260200160002060008b73ffffffffffffffffffffffffffffffffffffffff1673ffffffffffffffffffffffffffffffffffffffff168152602001908152602001600020819055508560008089815260200190815260200160002060008a73ffffffffffffffffffffffffffffffffffffffff1673ffffffffffffffffffffffffffffffffffffffff1681526020019081526020016000206000828254611c51919061361d565b925050819055508773ffffffffffffffffffffffffffffffffffffffff168973ffffffffffffffffffffffffffffffffffffffff168573ffffffffffffffffffffffffffffffffffffffff167fc3d58168c5ae7397731d063d5bbf3d657854427343f4c083240f7aacaa2d0f628a8a604051611cce92919061342f565b60405180910390a4611ce4848a8a86868a611dcb565b611cf2848a8a8a8a8a611dd3565b505050505050505050565b60606000600167ffffffffffffffff811115611d42577f4e487b7100000000000000000000000000000000000000000000000000000000600052604160045260246000fd5b604051908082528060200260200182016040528015611d705781602001602082028036833780820191505090505b5090508281600081518110611dae577f4e487b7100000000000000000000000000000000000000000000000000000000600052603260045260246000fd5b60200260200101818152505080915050919050565b505050505050565b505050505050565b611df28473ffffffffffffffffffffffffffffffffffffffff16612268565b15611fb2578373ffffffffffffffffffffffffffffffffffffffff1663f23a6e6187878686866040518663ffffffff1660e01b8152600401611e38959493929190613122565b602060405180830381600087803b158015611e5257600080fd5b505af1925050508015611e8357506040513d601f19601f82011682018060405250810190611e809190612abb565b60015b611f2957611e8f613862565b806308c379a01415611eec5750611ea4613cf7565b80611eaf5750611eee565b806040517f08c379a0000000000000000000000000000000000000000000000000000000008152600401611ee39190613212565b60405180910390fd5b505b6040517f08c379a0000000000000000000000000000000000000000000000000000000008152600401611f2090613234565b60405180910390fd5b63f23a6e6160e01b7bffffffffffffffffffffffffffffffffffffffffffffffffffffffff1916817bffffffffffffffffffffffffffffffffffffffffffffffffffffffff191614611fb0576040517f08c379a0000000000000000000000000000000000000000000000000000000008152600401611fa790613274565b60405180910390fd5b505b505050505050565b611fd98473ffffffffffffffffffffffffffffffffffffffff16612268565b15612199578373ffffffffffffffffffffffffffffffffffffffff1663bc197c8187878686866040518663ffffffff1660e01b815260040161201f959493929190613083565b602060405180830381600087803b15801561203957600080fd5b505af192505050801561206a57506040513d601f19601f820116820180604052508101906120679190612abb565b60015b61211057612076613862565b806308c379a014156120d3575061208b613cf7565b8061209657506120d5565b806040517f08c379a00000000000000000000000000000000000000000000000000000000081526004016120ca9190613212565b60405180910390fd5b505b6040517f08c379a000000000000000000000000000000000000000000000000000000000815260040161210790613234565b60405180910390fd5b63bc197c8160e01b7bffffffffffffffffffffffffffffffffffffffffffffffffffffffff1916817bffffffffffffffffffffffffffffffffffffffffffffffffffffffff191614612197576040517f08c379a000000000000000000000000000000000000000000000000000000000815260040161218e90613274565b60405180910390fd5b505b505050505050565b6000612203826040518060400160405280602081526020017f5361666545524332303a206c6f772d6c6576656c2063616c6c206661696c65648152508573ffffffffffffffffffffffffffffffffffffffff1661228b9092919063ffffffff16565b905060008151111561226357808060200190518101906122239190612a69565b612262576040517f08c379a000000000000000000000000000000000000000000000000000000000815260040161225990613394565b60405180910390fd5b5b505050565b6000808273ffffffffffffffffffffffffffffffffffffffff163b119050919050565b606061229a84846000856122a3565b90509392505050565b6060824710156122e8576040517f08c379a00000000000000000000000000000000000000000000000000000000081526004016122df906132d4565b60405180910390fd5b6122f185612268565b612330576040517f08c379a000000000000000000000000000000000000000000000000000000000815260040161232790613354565b60405180910390fd5b6000808673ffffffffffffffffffffffffffffffffffffffff168587604051612359919061302d565b60006040518083038185875af1925050503d8060008114612396576040519150601f19603f3d011682016040523d82523d6000602084013e61239b565b606091505b50915091506123ab8282866123b7565b92505050949350505050565b606083156123c757829050612417565b6000835111156123da5782518084602001fd5b816040517f08c379a000000000000000000000000000000000000000000000000000000000815260040161240e9190613212565b60405180910390fd5b9392505050565b82805461242a90613729565b90600052602060002090601f01602090048101928261244c5760008555612493565b82601f1061246557805160ff1916838001178555612493565b82800160010185558215612493579182015b82811115612492578251825591602001919060010190612477565b5b5090506124a091906124a4565b5090565b5b808211156124bd5760008160009055506001016124a5565b5090565b60006124d46124cf8461347d565b613458565b905080838252602082019050828560208602820111156124f357600080fd5b60005b8581101561252357816125098882612615565b8452602084019350602083019250506001810190506124f6565b5050509392505050565b600061254061253b846134a9565b613458565b9050808382526020820190508285602086028201111561255f57600080fd5b60005b8581101561258f57816125758882612726565b845260208401935060208301925050600181019050612562565b5050509392505050565b60006125ac6125a7846134d5565b613458565b9050828152602081018484840111156125c457600080fd5b6125cf8482856136e7565b509392505050565b60006125ea6125e584613506565b613458565b90508281526020810184848401111561260257600080fd5b61260d8482856136e7565b509392505050565b60008135905061262481613d8d565b92915050565b600082601f83011261263b57600080fd5b813561264b8482602086016124c1565b91505092915050565b600082601f83011261266557600080fd5b813561267584826020860161252d565b91505092915050565b60008135905061268d81613da4565b92915050565b6000815190506126a281613da4565b92915050565b6000813590506126b781613dbb565b92915050565b6000815190506126cc81613dbb565b92915050565b600082601f8301126126e357600080fd5b81356126f3848260208601612599565b91505092915050565b600082601f83011261270d57600080fd5b813561271d8482602086016125d7565b91505092915050565b60008135905061273581613dd2565b92915050565b60006020828403121561274d57600080fd5b600061275b84828501612615565b91505092915050565b6000806040838503121561277757600080fd5b600061278585828601612615565b925050602061279685828601612615565b9150509250929050565b600080600080600060a086880312156127b857600080fd5b60006127c688828901612615565b95505060206127d788828901612615565b945050604086013567ffffffffffffffff8111156127f457600080fd5b61280088828901612654565b935050606086013567ffffffffffffffff81111561281d57600080fd5b61282988828901612654565b925050608086013567ffffffffffffffff81111561284657600080fd5b612852888289016126d2565b9150509295509295909350565b600080600080600060a0868803121561287757600080fd5b600061288588828901612615565b955050602061289688828901612615565b94505060406128a788828901612726565b93505060606128b888828901612726565b925050608086013567ffffffffffffffff8111156128d557600080fd5b6128e1888289016126d2565b9150509295509295909350565b6000806040838503121561290157600080fd5b600061290f85828601612615565b92505060206129208582860161267e565b9150509250929050565b6000806040838503121561293d57600080fd5b600061294b85828601612615565b925050602061295c85828601612726565b9150509250929050565b6000806040838503121561297957600080fd5b600083013567ffffffffffffffff81111561299357600080fd5b61299f8582860161262a565b925050602083013567ffffffffffffffff8111156129bc57600080fd5b6129c885828601612654565b9150509250929050565b6000806000606084860312156129e757600080fd5b600084013567ffffffffffffffff811115612a0157600080fd5b612a0d86828701612654565b935050602084013567ffffffffffffffff811115612a2a57600080fd5b612a3686828701612654565b925050604084013567ffffffffffffffff811115612a5357600080fd5b612a5f868287016126d2565b9150509250925092565b600060208284031215612a7b57600080fd5b6000612a8984828501612693565b91505092915050565b600060208284031215612aa457600080fd5b6000612ab2848285016126a8565b91505092915050565b600060208284031215612acd57600080fd5b6000612adb848285016126bd565b91505092915050565b600060208284031215612af657600080fd5b600082013567ffffffffffffffff811115612b1057600080fd5b612b1c848285016126fc565b91505092915050565b600060208284031215612b3757600080fd5b6000612b4584828501612726565b91505092915050565b60008060408385031215612b6157600080fd5b6000612b6f85828601612726565b9250506020612b8085828601612726565b9150509250929050565b6000612b968383612d11565b905092915050565b6000612baa838361300f565b60208301905092915050565b612bbf81613673565b82525050565b6000612bd08261356c565b612bda81856135b2565b935083602082028501612bec85613537565b8060005b85811015612c285784840389528151612c098582612b8a565b9450612c1483613598565b925060208a01995050600181019050612bf0565b50829750879550505050505092915050565b6000612c4582613577565b612c4f81856135c3565b9350612c5a83613547565b8060005b83811015612c8b578151612c728882612b9e565b9750612c7d836135a5565b925050600181019050612c5e565b5085935050505092915050565b612ca181613685565b82525050565b6000612cb282613582565b612cbc81856135d4565b9350612ccc8185602086016136f6565b612cd581613884565b840191505092915050565b6000612ceb82613582565b612cf581856135e5565b9350612d058185602086016136f6565b80840191505092915050565b6000612d1c8261358d565b612d2681856135f0565b9350612d368185602086016136f6565b612d3f81613884565b840191505092915050565b6000612d558261358d565b612d5f8185613601565b9350612d6f8185602086016136f6565b612d7881613884565b840191505092915050565b60008154612d9081613729565b612d9a8186613612565b94506001821660008114612db55760018114612dc657612df9565b60ff19831686528186019350612df9565b612dcf85613557565b60005b83811015612df157815481890152600182019150602081019050612dd2565b838801955050505b50505092915050565b6000612e0f603483613601565b9150612e1a826138a2565b604082019050919050565b6000612e32602f83613601565b9150612e3d826138f1565b604082019050919050565b6000612e55602883613601565b9150612e6082613940565b604082019050919050565b6000612e78602683613601565b9150612e838261398f565b604082019050919050565b6000612e9b602a83613601565b9150612ea6826139de565b604082019050919050565b6000612ebe602683613601565b9150612ec982613a2d565b604082019050919050565b6000612ee1602583613601565b9150612eec82613a7c565b604082019050919050565b6000612f04602a83613601565b9150612f0f82613acb565b604082019050919050565b6000612f27602083613601565b9150612f3282613b1a565b602082019050919050565b6000612f4a601d83613601565b9150612f5582613b43565b602082019050919050565b6000612f6d602983613601565b9150612f7882613b6c565b604082019050919050565b6000612f90602a83613601565b9150612f9b82613bbb565b604082019050919050565b6000612fb3602983613601565b9150612fbe82613c0a565b604082019050919050565b6000612fd6602883613601565b9150612fe182613c59565b604082019050919050565b6000612ff9602183613601565b915061300482613ca8565b604082019050919050565b613018816136dd565b82525050565b613027816136dd565b82525050565b60006130398284612ce0565b915081905092915050565b60006130508285612d83565b915061305c8284612d83565b91508190509392505050565b600060208201905061307d6000830184612bb6565b92915050565b600060a0820190506130986000830188612bb6565b6130a56020830187612bb6565b81810360408301526130b78186612c3a565b905081810360608301526130cb8185612c3a565b905081810360808301526130df8184612ca7565b90509695505050505050565b60006060820190506131006000830186612bb6565b61310d6020830185612bb6565b61311a604083018461301e565b949350505050565b600060a0820190506131376000830188612bb6565b6131446020830187612bb6565b613151604083018661301e565b61315e606083018561301e565b81810360808301526131708184612ca7565b90509695505050505050565b600060208201905081810360008301526131968184612bc5565b905092915050565b600060208201905081810360008301526131b88184612c3a565b905092915050565b600060408201905081810360008301526131da8185612c3a565b905081810360208301526131ee8184612c3a565b90509392505050565b600060208201905061320c6000830184612c98565b92915050565b6000602082019050818103600083015261322c8184612d4a565b905092915050565b6000602082019050818103600083015261324d81612e02565b9050919050565b6000602082019050818103600083015261326d81612e25565b9050919050565b6000602082019050818103600083015261328d81612e48565b9050919050565b600060208201905081810360008301526132ad81612e6b565b9050919050565b600060208201905081810360008301526132cd81612e8e565b9050919050565b600060208201905081810360008301526132ed81612eb1565b9050919050565b6000602082019050818103600083015261330d81612ed4565b9050919050565b6000602082019050818103600083015261332d81612ef7565b9050919050565b6000602082019050818103600083015261334d81612f1a565b9050919050565b6000602082019050818103600083015261336d81612f3d565b9050919050565b6000602082019050818103600083015261338d81612f60565b9050919050565b600060208201905081810360008301526133ad81612f83565b9050919050565b600060208201905081810360008301526133cd81612fa6565b9050919050565b600060208201905081810360008301526133ed81612fc9565b9050919050565b6000602082019050818103600083015261340d81612fec565b9050919050565b6000602082019050613429600083018461301e565b92915050565b6000604082019050613444600083018561301e565b613451602083018461301e565b9392505050565b6000613462613473565b905061346e828261375b565b919050565b6000604051905090565b600067ffffffffffffffff82111561349857613497613833565b5b602082029050602081019050919050565b600067ffffffffffffffff8211156134c4576134c3613833565b5b602082029050602081019050919050565b600067ffffffffffffffff8211156134f0576134ef613833565b5b6134f982613884565b9050602081019050919050565b600067ffffffffffffffff82111561352157613520613833565b5b61352a82613884565b9050602081019050919050565b6000819050602082019050919050565b6000819050602082019050919050565b60008190508160005260206000209050919050565b600081519050919050565b600081519050919050565b600081519050919050565b600081519050919050565b6000602082019050919050565b6000602082019050919050565b600082825260208201905092915050565b600082825260208201905092915050565b600082825260208201905092915050565b600081905092915050565b600082825260208201905092915050565b600082825260208201905092915050565b600081905092915050565b6000613628826136dd565b9150613633836136dd565b9250827fffffffffffffffffffffffffffffffffffffffffffffffffffffffffffffffff03821115613668576136676137d5565b5b828201905092915050565b600061367e826136bd565b9050919050565b60008115159050919050565b60007fffffffff0000000000000000000000000000000000000000000000000000000082169050919050565b600073ffffffffffffffffffffffffffffffffffffffff82169050919050565b6000819050919050565b82818337600083830152505050565b60005b838110156137145780820151818401526020810190506136f9565b83811115613723576000848401525b50505050565b6000600282049050600182168061374157607f821691505b6020821081141561375557613754613804565b5b50919050565b61376482613884565b810181811067ffffffffffffffff8211171561378357613782613833565b5b80604052505050565b6000613797826136dd565b91507fffffffffffffffffffffffffffffffffffffffffffffffffffffffffffffffff8214156137ca576137c96137d5565b5b600182019050919050565b7f4e487b7100000000000000000000000000000000000000000000000000000000600052601160045260246000fd5b7f4e487b7100000000000000000000000000000000000000000000000000000000600052602260045260246000fd5b7f4e487b7100000000000000000000000000000000000000000000000000000000600052604160045260246000fd5b600060033d11156138815760046000803e61387e600051613895565b90505b90565b6000601f19601f8301169050919050565b60008160e01c9050919050565b7f455243313135353a207472616e7366657220746f206e6f6e204552433131353560008201527f526563656976657220696d706c656d656e746572000000000000000000000000602082015250565b7f455243313135353a2063616c6c6572206973206e6f7420746f6b656e206f776e60008201527f6572206e6f7220617070726f7665640000000000000000000000000000000000602082015250565b7f455243313135353a204552433131353552656365697665722072656a6563746560008201527f6420746f6b656e73000000000000000000000000000000000000000000000000602082015250565b7f4f776e61626c653a206e6577206f776e657220697320746865207a65726f206160008201527f6464726573730000000000000000000000000000000000000000000000000000602082015250565b7f455243313135353a2061646472657373207a65726f206973206e6f742061207660008201527f616c6964206f776e657200000000000000000000000000000000000000000000602082015250565b7f416464726573733a20696e73756666696369656e742062616c616e636520666f60008201527f722063616c6c0000000000000000000000000000000000000000000000000000602082015250565b7f455243313135353a207472616e7366657220746f20746865207a65726f20616460008201527f6472657373000000000000000000000000000000000000000000000000000000602082015250565b7f455243313135353a20696e73756666696369656e742062616c616e636520666f60008201527f72207472616e7366657200000000000000000000000000000000000000000000602082015250565b7f4f776e61626c653a2063616c6c6572206973206e6f7420746865206f776e6572600082015250565b7f416464726573733a2063616c6c20746f206e6f6e2d636f6e7472616374000000600082015250565b7f455243313135353a2073657474696e6720617070726f76616c2073746174757360008201527f20666f722073656c660000000000000000000000000000000000000000000000602082015250565b7f5361666545524332303a204552433230206f7065726174696f6e20646964206e60008201527f6f74207375636365656400000000000000000000000000000000000000000000602082015250565b7f455243313135353a206163636f756e747320616e6420696473206c656e67746860008201527f206d69736d617463680000000000000000000000000000000000000000000000602082015250565b7f455243313135353a2069647320616e6420616d6f756e7473206c656e6774682060008201527f6d69736d61746368000000000000000000000000000000000000000000000000602082015250565b7f455243313135353a206d696e7420746f20746865207a65726f2061646472657360008201527f7300000000000000000000000000000000000000000000000000000000000000602082015250565b600060443d1015613d0757613d8a565b613d0f613473565b60043d036004823e80513d602482011167ffffffffffffffff82111715613d37575050613d8a565b808201805167ffffffffffffffff811115613d555750505050613d8a565b80602083010160043d038501811115613d72575050505050613d8a565b613d818260200185018661375b565b82955050505050505b90565b613d9681613673565b8114613da157600080fd5b50565b613dad81613685565b8114613db857600080fd5b50565b613dc481613691565b8114613dcf57600080fd5b50565b613ddb816136dd565b8114613de657600080fd5b5056fea2646970667358221220a561224a21d54ad3e22864275601b4ee16de35927c04def3390b1321ffb33adf64736f6c63430008040033",
  "linkReferences": {},
  "deployedLinkReferences": {}
}